:100000000C9462000C948A000C948A000C948A0070
:100010000C948A000C948A000C948A000C948A0038
:100020000C948A000C948A000C948A000C948A0028
:100030000C948A000C948A000C948A000C948A0018
:100040000C940A030C948A000C94D8020C94B2020B
:100050000C948A000C948A000C948A000C948A00F8
:100060000C948A000C948A000000000025002800EF
:100070002B0000000000240027002A0000000000E0
:1000800023002600290004040404040404040202DA
:100090000202020203030303030301020408102007
:1000A0004080010204081020010204081020000012
:1000B0000008000201000003040700000000000027
:1000C0000000000511241FBECFEFD8E0DEBFCDBF7A
:1000D00011E0A0E0B1E0EEEFFAE002C005900D9271
:1000E000A032B107D9F721E0A0E2B1E001C01D9232
:1000F000A83CB207E1F710E0C2E6D0E004C02197C7
:10010000FE010E947705C136D107C9F70E9454034A
:100110000C947D050C940000CF93DF931F92CDB714
:10012000DEB750917C0040917A0030917B0028B17D
:1001300097B180E480937C0084E880937A001092E9
:100140007B004098389A3898419A80917A00806470
:1001500080937A0061E080917A0086FF04C088B1C4
:10016000862788B9F8CF80917800609179006983FB
:1001700050937C0040937A0030937B0028B997B964
:10018000817090E00F90DF91CF910895CF93DF932E
:100190000E948C00EC010E948C00880F991F8C2B10
:1001A0009D2B8130910539F0029791F781E090E025
:1001B000DF91CF91089590E080E0FACFCF93DF9365
:1001C0000E94C600EC010E94C600880F991F8C2B6C
:1001D0009D2B8130910539F0029791F781E090E0F5
:1001E000DF91CF91089590E080E0FACFAF92BF9277
:1001F000CF92DF92EF92FF920F931F93CF93DF93F3
:100200006C017B018B01040F151FEB015E01AE1821
:10021000BF08C017D10759F06991D601ED91FC9143
:100220000190F081E02DC6010995892B79F7C50170
:10023000DF91CF911F910F91FF90EF90DF90CF90C2
:10024000BF90AF900895FC01538D448D252F30E071
:10025000842F90E0821B930B541710F0CF960895D3
:1002600001970895FC01918D828D981761F0A28D00
:10027000AE0FBF2FB11D5D968C91928D9F5F9F73C6
:10028000928F90E008958FEF9FEF0895FC01918D7C
:10029000828D981731F0828DE80FF11D858D90E0E9
:1002A00008958FEF9FEF0895FC01918D228D892F86
:1002B00090E0805C9F4F821B91098F73992708956E
:1002C00089E291E00E94540121E0892B09F420E0A9
:1002D000822F089580E090E0892B29F00E94600130
:1002E00081110C9400000895FC01A48DA80FB92F72
:1002F000B11DA35ABF4F2C91848D90E001968F734E
:100300009927848FA689B7892C93A089B1898C916C
:10031000837080648C93938D848D981306C00288BB
:10032000F389E02D80818F7D80830895EF92FF9285
:100330000F931F93CF93DF93EC0181E0888F9B8D08
:100340008C8D98131AC0E889F989808185FF15C0C2
:100350009FB7F894EE89FF896083E889F9898081E5
:100360008370806480839FBF81E090E0DF91CF91B4
:100370001F910F91FF90EF900895F62E0B8D10E0D6
:100380000F5F1F4F0F731127E02E8C8D8E110CC045
:100390000FB607FCFACFE889F989808185FFF5CF90
:1003A000CE010E947401F1CFEB8DEC0FFD2FF11DFA
:1003B000E35AFF4FF0829FB7F8940B8FEA89FB89CD
:1003C00080818062CFCFCF93DF93EC01888D88232B
:1003D000B9F0AA89BB89E889F9898C9185FD03C0A8
:1003E000808186FD0DC00FB607FCF7CF8C9185FF8D
:1003F000F2CF808185FFEDCFCE010E947401E9CF5D
:10040000DF91CF910895833081F028F4813099F005
:100410008230A9F008958730A9F08830C9F084307F
:10042000B1F4809180008F7D03C0809180008F7730
:1004300080938000089584B58F7784BD089584B536
:100440008F7DFBCF8091B0008F778093B0000895AF
:100450008091B0008F7DF9CF1F93CF93DF93282F2A
:1004600030E0F901E255FF4F8491F901E656FF4F64
:10047000D491F901EA57FF4FC491CC23A9F0162F6C
:1004800081110E940302EC2FF0E0EE0FFF1FE859EC
:10049000FF4FA591B4918FB7F894EC91111108C05A
:1004A000D095DE23DC938FBFDF91CF911F9108950C
:1004B000DE2BF8CF3FB7F89480912501909126016B
:1004C000A0912701B091280126B5A89B05C02F3F18
:1004D00019F00196A11DB11D3FBFBA2FA92F982F6A
:1004E0008827BC01CD01620F711D811D911D42E065
:1004F000660F771F881F991F4A95D1F708958F922D
:100500009F92AF92BF92CF92DF92EF92FF926B01D8
:100510007C010E945A024B015C01C114D104E10428
:10052000F104B9F00E945A02681979098A099B09F5
:10053000683E73408105910580F321E0C21AD1081D
:10054000E108F10888EE880E83E0981EA11CB11C1A
:10055000E4CFFF90EF90DF90CF90BF90AF909F904F
:100560008F9008951F920F920FB60F9211242F9320
:100570003F934F935F936F937F938F939F93AF932B
:10058000BF93EF93FF9389E291E00E947401FF9182
:10059000EF91BF91AF919F918F917F916F915F91FB
:1005A0004F913F912F910F900FBE0F901F90189574
:1005B0001F920F920FB60F9211242F938F939F9338
:1005C000EF93FF93E0913901F0913A018081E0913E
:1005D0003F01F091400182FD1BC09081809142015A
:1005E0008F5F8F7320914301821741F0E0914201A8
:1005F000F0E0E75DFE4F958F80934201FF91EF9110
:100600009F918F912F910F900FBE0F901F90189573
:100610008081F4CF1F920F920FB60F9211242F9367
:100620003F938F939F93AF93BF93809121019091BC
:100630002201A0912301B09124013091200123E0F7
:10064000230F2D3758F50196A11DB11D20932001D0
:100650008093210190932201A0932301B093240160
:100660008091250190912601A0912701B091280148
:100670000196A11DB11D8093250190932601A093A1
:100680002701B0932801BF91AF919F918F913F9126
:100690002F910F900FBE0F901F90189526E8230FF3
:1006A0000296A11DB11DD2CFCF93DF93CDB7DEB798
:1006B000A1970FB6F894DEBF0FBECDBF789484B576
:1006C000826084BD84B5816084BD85B5826085BD4E
:1006D00085B5816085BD80916E00816080936E00DC
:1006E00010928100809181008260809381008091CE
:1006F000810081608093810080918000816080937F
:1007000080008091B10084608093B1008091B0003E
:1007100081608093B00080917A00846080937A0039
:1007200080917A00826080937A0080917A00816063
:1007300080937A0080917A00806880937A0010928A
:10074000C100E0913901F0913A0182E08083E091AB
:100750003501F09136011082E0913701F0913801B6
:100760008FEC808310924101E0913D01F0913E01B8
:1007700086E08083E0913B01F0913C0180818061C3
:100780008083E0913B01F0913C018081886080830F
:10079000E0913B01F0913C01808180688083E09191
:1007A0003B01F0913C0180818F7D808322E030E02D
:1007B000F901E656FF4F4491F901EA57FF4F849142
:1007C000882399F090E0880F991FFC01EE58FF4FA5
:1007D000A591B491FC01E859FF4F859194918FB791
:1007E000F894EC91E42BEC938FBF2F5F3F4F2B30AD
:1007F0003105F1F66AE0462E512C612C712C70E027
:10080000272E70E0372EEBEBF0E08491E7EAF0E082
:100810000491E3E9F0E01491112309F499C08111E6
:100820000E940302E12FF0E0EE0FFF1FE458FF4F9C
:10083000A591B4918C91082309F48AC00EE110E0CF
:1008400044E0842E912CA12CB12CC12CD12C76010A
:100850000E94DE00892B21F0C828D928EA28FB282D
:10086000F6E0CF16D104E104F10454F7B594A7944F
:100870009794879481149104A104B10449F78FEFF0
:10088000C81AD80AE80AF80AC092C7018091C601BE
:100890008C15B1F2C092C601A701960119A27E0182
:1008A00091E2E90EF11CCA01B901A30192010E9473
:1008B0004105605DF70162937F0121153105410516
:1008C000510589F7309761F001900020E9F73197E1
:1008D000AF014E195F09B70189E291E00E94F6006D
:1008E00042E050E06DE171E089E291E00E94F600A3
:1008F0008091C701833009F46EC0B0F5813009F4EE
:100900007CC0823009F472C080ED97E0B8010E948B
:100910002D056B01770FEE08FF08C701B6010E9495
:100920007F020A30110571F082E0B82E60E08B2D55
:100930000E942C02B394FBE0BF12F8CFC701B601AE
:100940000E947F02015011090930110509F078CF8A
:100950002114310409F457CF0E946001882309F45F
:1009600052CF0E9400004FCF853099F018F122E15C
:10097000E22E21E0F22E863039F6F8E1EF16F1E0B2
:10098000FF0611F261E0F70181917F010E942C02C4
:10099000F4CF98E1E92E91E0F92E8DE191E08E15EA
:1009A0009F0509F4B1CF61E0F70181917F010E94B9
:1009B0002C02F3CF61E084E00E942C0261E082E02F
:1009C0000E942C0261E08AE00E942C0261E088E033
:1009D0000E942C0299CF61E086E00E942C0261E027
:1009E00084E00E942C0261E08AE0F2CF61E085E0C1
:1009F0000E942C0261E087E0EBCF61E086E0E8CF67
:100A0000E9E2F1E01382128288EE93E0A0E0B0E028
:100A100084839583A683B78384E091E09183808368
:100A200085EC90E09587848784EC90E097878687B3
:100A300080EC90E0918B808B81EC90E0938B828BAB
:100A400082EC90E0958B848B86EC90E0978B868B84
:100A5000118E128E138E148E089597FB072E16F4A6
:100A6000009407D077FD09D00E94630507FC05D0EC
:100A70003EF4909581959F4F0895709561957F4FB5
:100A80000895A1E21A2EAA1BBB1BFD010DC0AA1FCF
:100A9000BB1FEE1FFF1FA217B307E407F50720F0E7
:100AA000A21BB30BE40BF50B661F771F881F991F62
:100AB0001A9469F760957095809590959B01AC01AB
:100AC000BD01CF010895AA1BBB1B51E107C0AA1F9E
:100AD000BB1FA617B70710F0A61BB70B881F991FDF
:100AE0005A95A9F780959095BC01CD010895EE0F18
:0E0AF000FF1F0590F491E02D0994F894FFCFBC
:100AFE00000000009601F6002301E30154013201CB
:100B0E00460102030408090A020406080A0D0A0037
:00000001FF
